{
	"data": {
		"bytecode": {
			"linkReferences": {},
			"object": "608060405234801561001057600080fd5b50610199806100206000396000f3fe608060405234801561001057600080fd5b50600436106100365760003560e01c806316183e571461003b578063f8459dc814610045575b600080fd5b61004361004f565b005b61004d610051565b005b565b60005b600a8110156100a7577f1c6ec4ac5681419a77434c822c9c70cfd768a9c402a5e74f3f6c37869612e6b68160405161008c91906100b9565b60405180910390a1808061009f906100eb565b915050610054565b50565b6100b3816100de565b82525050565b60006020820190506100ce60008301846100aa565b92915050565b6000819050919050565b600060ff82169050919050565b60006100f6826100d4565b91507fffffffffffffffffffffffffffffffffffffffffffffffffffffffffffffffff82141561012957610128610134565b5b600182019050919050565b7f4e487b7100000000000000000000000000000000000000000000000000000000600052601160045260246000fdfea2646970667358221220ee101a522e4a87a42ba6561ad7706435673dbcf30e05def0bed84898f2e1767a64736f6c63430008030033",
			"opcodes": "PUSH1 0x80 PUSH1 0x40 MSTORE CALLVALUE DUP1 ISZERO PUSH2 0x10 JUMPI PUSH1 0x0 DUP1 REVERT JUMPDEST POP PUSH2 0x199 DUP1 PUSH2 0x20 PUSH1 0x0 CODECOPY PUSH1 0x0 RETURN INVALID PUSH1 0x80 PUSH1 0x40 MSTORE CALLVALUE DUP1 ISZERO PUSH2 0x10 JUMPI PUSH1 0x0 DUP1 REVERT JUMPDEST POP PUSH1 0x4 CALLDATASIZE LT PUSH2 0x36 JUMPI PUSH1 0x0 CALLDATALOAD PUSH1 0xE0 SHR DUP1 PUSH4 0x16183E57 EQ PUSH2 0x3B JUMPI DUP1 PUSH4 0xF8459DC8 EQ PUSH2 0x45 JUMPI JUMPDEST PUSH1 0x0 DUP1 REVERT JUMPDEST PUSH2 0x43 PUSH2 0x4F JUMP JUMPDEST STOP JUMPDEST PUSH2 0x4D PUSH2 0x51 JUMP JUMPDEST STOP JUMPDEST JUMP JUMPDEST PUSH1 0x0 JUMPDEST PUSH1 0xA DUP2 LT ISZERO PUSH2 0xA7 JUMPI PUSH32 0x1C6EC4AC5681419A77434C822C9C70CFD768A9C402A5E74F3F6C37869612E6B6 DUP2 PUSH1 0x40 MLOAD PUSH2 0x8C SWAP2 SWAP1 PUSH2 0xB9 JUMP JUMPDEST PUSH1 0x40 MLOAD DUP1 SWAP2 SUB SWAP1 LOG1 DUP1 DUP1 PUSH2 0x9F SWAP1 PUSH2 0xEB JUMP JUMPDEST SWAP2 POP POP PUSH2 0x54 JUMP JUMPDEST POP JUMP JUMPDEST PUSH2 0xB3 DUP2 PUSH2 0xDE JUMP JUMPDEST DUP3 MSTORE POP POP JUMP JUMPDEST PUSH1 0x0 PUSH1 0x20 DUP3 ADD SWAP1 POP PUSH2 0xCE PUSH1 0x0 DUP4 ADD DUP5 PUSH2 0xAA JUMP JUMPDEST SWAP3 SWAP2 POP POP JUMP JUMPDEST PUSH1 0x0 DUP2 SWAP1 POP SWAP2 SWAP1 POP JUMP JUMPDEST PUSH1 0x0 PUSH1 0xFF DUP3 AND SWAP1 POP SWAP2 SWAP1 POP JUMP JUMPDEST PUSH1 0x0 PUSH2 0xF6 DUP3 PUSH2 0xD4 JUMP JUMPDEST SWAP2 POP PUSH32 0xFFFFFFFFFFFFFFFFFFFFFFFFFFFFFFFFFFFFFFFFFFFFFFFFFFFFFFFFFFFFFFFF DUP3 EQ ISZERO PUSH2 0x129 JUMPI PUSH2 0x128 PUSH2 0x134 JUMP JUMPDEST JUMPDEST PUSH1 0x1 DUP3 ADD SWAP1 POP SWAP2 SWAP1 POP JUMP JUMPDEST PUSH32 0x4E487B7100000000000000000000000000000000000000000000000000000000 PUSH1 0x0 MSTORE PUSH1 0x11 PUSH1 0x4 MSTORE PUSH1 0x24 PUSH1 0x0 REVERT INVALID LOG2 PUSH5 0x6970667358 0x22 SLT KECCAK256 0xEE LT BYTE MSTORE 0x2E 0x4A DUP8 LOG4 0x2B 0xA6 JUMP BYTE 0xD7 PUSH17 0x6435673DBCF30E05DEF0BED84898F2E176 PUSH27 0x64736F6C6343000803003300000000000000000000000000000000 "
		},
		"gasEstimates": {
			"creation": {
				"codeDepositCost": "81800",
				"executionCost": "129",
				"totalCost": "81929"
			},
			"external": {
				"assemblyLoop()": "122",
				"solidityLoop()": "infinite"
			}
		},
		"methodIdentifiers": {
			"assemblyLoop()": "16183e57",
			"solidityLoop()": "f8459dc8"
		}
	},
	"abi": [
		{
			"anonymous": false,
			"inputs": [
				{
					"indexed": false,
					"internalType": "uint8",
					"name": "",
					"type": "uint8"
				}
			],
			"name": "display",
			"type": "event"
		},
		{
			"inputs": [],
			"name": "assemblyLoop",
			"outputs": [],
			"stateMutability": "nonpayable",
			"type": "function"
		},
		{
			"inputs": [],
			"name": "solidityLoop",
			"outputs": [],
			"stateMutability": "nonpayable",
			"type": "function"
		}
	]
}