{
	"data": {
		"bytecode": {
			"linkReferences": {},
			"object": "608060405234801561001057600080fd5b50610373806100206000396000f3fe6080604052600436106100345760003560e01c80635bfa92271461003957806394d26e4f14610065578063fbc1c9341461006f575b600080fd5b34801561004557600080fd5b5061004e610079565b60405161005c929190610285565b60405180910390f35b61006d610117565b005b610077610177565b005b60008060008060003373ffffffffffffffffffffffffffffffffffffffff1673ffffffffffffffffffffffffffffffffffffffff16815260200190815260200160002060405180606001604052908160008201548152602001600182015481526020016002820160009054906101000a900460ff16151515158152505090506064816000015161010991906102ae565b925080602001519150509091565b60008060003373ffffffffffffffffffffffffffffffffffffffff1673ffffffffffffffffffffffffffffffffffffffff16815260200190815260200160002090503481600001600082825461016d91906102ae565b9250508190555050565b60008060003373ffffffffffffffffffffffffffffffffffffffff1673ffffffffffffffffffffffffffffffffffffffff16815260200190815260200160002060405180606001604052908160008201548152602001600182015481526020016002820160009054906101000a900460ff161515151581525050905034816000018181525050806000803373ffffffffffffffffffffffffffffffffffffffff1673ffffffffffffffffffffffffffffffffffffffff168152602001908152602001600020600082015181600001556020820151816001015560408201518160020160006101000a81548160ff02191690831515021790555090505050565b61027f81610304565b82525050565b600060408201905061029a6000830185610276565b6102a76020830184610276565b9392505050565b60006102b982610304565b91506102c483610304565b9250827fffffffffffffffffffffffffffffffffffffffffffffffffffffffffffffffff038211156102f9576102f861030e565b5b828201905092915050565b6000819050919050565b7f4e487b7100000000000000000000000000000000000000000000000000000000600052601160045260246000fdfea26469706673582212204081c06ea933ffe772496d4695c6a8da0eedf94f67b4dab0df18bde8cdb2b0a964736f6c63430008030033",
			"opcodes": "PUSH1 0x80 PUSH1 0x40 MSTORE CALLVALUE DUP1 ISZERO PUSH2 0x10 JUMPI PUSH1 0x0 DUP1 REVERT JUMPDEST POP PUSH2 0x373 DUP1 PUSH2 0x20 PUSH1 0x0 CODECOPY PUSH1 0x0 RETURN INVALID PUSH1 0x80 PUSH1 0x40 MSTORE PUSH1 0x4 CALLDATASIZE LT PUSH2 0x34 JUMPI PUSH1 0x0 CALLDATALOAD PUSH1 0xE0 SHR DUP1 PUSH4 0x5BFA9227 EQ PUSH2 0x39 JUMPI DUP1 PUSH4 0x94D26E4F EQ PUSH2 0x65 JUMPI DUP1 PUSH4 0xFBC1C934 EQ PUSH2 0x6F JUMPI JUMPDEST PUSH1 0x0 DUP1 REVERT JUMPDEST CALLVALUE DUP1 ISZERO PUSH2 0x45 JUMPI PUSH1 0x0 DUP1 REVERT JUMPDEST POP PUSH2 0x4E PUSH2 0x79 JUMP JUMPDEST PUSH1 0x40 MLOAD PUSH2 0x5C SWAP3 SWAP2 SWAP1 PUSH2 0x285 JUMP JUMPDEST PUSH1 0x40 MLOAD DUP1 SWAP2 SUB SWAP1 RETURN JUMPDEST PUSH2 0x6D PUSH2 0x117 JUMP JUMPDEST STOP JUMPDEST PUSH2 0x77 PUSH2 0x177 JUMP JUMPDEST STOP JUMPDEST PUSH1 0x0 DUP1 PUSH1 0x0 DUP1 PUSH1 0x0 CALLER PUSH20 0xFFFFFFFFFFFFFFFFFFFFFFFFFFFFFFFFFFFFFFFF AND PUSH20 0xFFFFFFFFFFFFFFFFFFFFFFFFFFFFFFFFFFFFFFFF AND DUP2 MSTORE PUSH1 0x20 ADD SWAP1 DUP2 MSTORE PUSH1 0x20 ADD PUSH1 0x0 KECCAK256 PUSH1 0x40 MLOAD DUP1 PUSH1 0x60 ADD PUSH1 0x40 MSTORE SWAP1 DUP2 PUSH1 0x0 DUP3 ADD SLOAD DUP2 MSTORE PUSH1 0x20 ADD PUSH1 0x1 DUP3 ADD SLOAD DUP2 MSTORE PUSH1 0x20 ADD PUSH1 0x2 DUP3 ADD PUSH1 0x0 SWAP1 SLOAD SWAP1 PUSH2 0x100 EXP SWAP1 DIV PUSH1 0xFF AND ISZERO ISZERO ISZERO ISZERO DUP2 MSTORE POP POP SWAP1 POP PUSH1 0x64 DUP2 PUSH1 0x0 ADD MLOAD PUSH2 0x109 SWAP2 SWAP1 PUSH2 0x2AE JUMP JUMPDEST SWAP3 POP DUP1 PUSH1 0x20 ADD MLOAD SWAP2 POP POP SWAP1 SWAP2 JUMP JUMPDEST PUSH1 0x0 DUP1 PUSH1 0x0 CALLER PUSH20 0xFFFFFFFFFFFFFFFFFFFFFFFFFFFFFFFFFFFFFFFF AND PUSH20 0xFFFFFFFFFFFFFFFFFFFFFFFFFFFFFFFFFFFFFFFF AND DUP2 MSTORE PUSH1 0x20 ADD SWAP1 DUP2 MSTORE PUSH1 0x20 ADD PUSH1 0x0 KECCAK256 SWAP1 POP CALLVALUE DUP2 PUSH1 0x0 ADD PUSH1 0x0 DUP3 DUP3 SLOAD PUSH2 0x16D SWAP2 SWAP1 PUSH2 0x2AE JUMP JUMPDEST SWAP3 POP POP DUP2 SWAP1 SSTORE POP POP JUMP JUMPDEST PUSH1 0x0 DUP1 PUSH1 0x0 CALLER PUSH20 0xFFFFFFFFFFFFFFFFFFFFFFFFFFFFFFFFFFFFFFFF AND PUSH20 0xFFFFFFFFFFFFFFFFFFFFFFFFFFFFFFFFFFFFFFFF AND DUP2 MSTORE PUSH1 0x20 ADD SWAP1 DUP2 MSTORE PUSH1 0x20 ADD PUSH1 0x0 KECCAK256 PUSH1 0x40 MLOAD DUP1 PUSH1 0x60 ADD PUSH1 0x40 MSTORE SWAP1 DUP2 PUSH1 0x0 DUP3 ADD SLOAD DUP2 MSTORE PUSH1 0x20 ADD PUSH1 0x1 DUP3 ADD SLOAD DUP2 MSTORE PUSH1 0x20 ADD PUSH1 0x2 DUP3 ADD PUSH1 0x0 SWAP1 SLOAD SWAP1 PUSH2 0x100 EXP SWAP1 DIV PUSH1 0xFF AND ISZERO ISZERO ISZERO ISZERO DUP2 MSTORE POP POP SWAP1 POP CALLVALUE DUP2 PUSH1 0x0 ADD DUP2 DUP2 MSTORE POP POP DUP1 PUSH1 0x0 DUP1 CALLER PUSH20 0xFFFFFFFFFFFFFFFFFFFFFFFFFFFFFFFFFFFFFFFF AND PUSH20 0xFFFFFFFFFFFFFFFFFFFFFFFFFFFFFFFFFFFFFFFF AND DUP2 MSTORE PUSH1 0x20 ADD SWAP1 DUP2 MSTORE PUSH1 0x20 ADD PUSH1 0x0 KECCAK256 PUSH1 0x0 DUP3 ADD MLOAD DUP2 PUSH1 0x0 ADD SSTORE PUSH1 0x20 DUP3 ADD MLOAD DUP2 PUSH1 0x1 ADD SSTORE PUSH1 0x40 DUP3 ADD MLOAD DUP2 PUSH1 0x2 ADD PUSH1 0x0 PUSH2 0x100 EXP DUP2 SLOAD DUP2 PUSH1 0xFF MUL NOT AND SWAP1 DUP4 ISZERO ISZERO MUL OR SWAP1 SSTORE POP SWAP1 POP POP POP JUMP JUMPDEST PUSH2 0x27F DUP2 PUSH2 0x304 JUMP JUMPDEST DUP3 MSTORE POP POP JUMP JUMPDEST PUSH1 0x0 PUSH1 0x40 DUP3 ADD SWAP1 POP PUSH2 0x29A PUSH1 0x0 DUP4 ADD DUP6 PUSH2 0x276 JUMP JUMPDEST PUSH2 0x2A7 PUSH1 0x20 DUP4 ADD DUP5 PUSH2 0x276 JUMP JUMPDEST SWAP4 SWAP3 POP POP POP JUMP JUMPDEST PUSH1 0x0 PUSH2 0x2B9 DUP3 PUSH2 0x304 JUMP JUMPDEST SWAP2 POP PUSH2 0x2C4 DUP4 PUSH2 0x304 JUMP JUMPDEST SWAP3 POP DUP3 PUSH32 0xFFFFFFFFFFFFFFFFFFFFFFFFFFFFFFFFFFFFFFFFFFFFFFFFFFFFFFFFFFFFFFFF SUB DUP3 GT ISZERO PUSH2 0x2F9 JUMPI PUSH2 0x2F8 PUSH2 0x30E JUMP JUMPDEST JUMPDEST DUP3 DUP3 ADD SWAP1 POP SWAP3 SWAP2 POP POP JUMP JUMPDEST PUSH1 0x0 DUP2 SWAP1 POP SWAP2 SWAP1 POP JUMP JUMPDEST PUSH32 0x4E487B7100000000000000000000000000000000000000000000000000000000 PUSH1 0x0 MSTORE PUSH1 0x11 PUSH1 0x4 MSTORE PUSH1 0x24 PUSH1 0x0 REVERT INVALID LOG2 PUSH5 0x6970667358 0x22 SLT KECCAK256 BLOCKHASH DUP2 0xC0 PUSH15 0xA933FFE772496D4695C6A8DA0EEDF9 0x4F PUSH8 0xB4DAB0DF18BDE8CD 0xB2 0xB0 0xA9 PUSH5 0x736F6C6343 STOP ADDMOD SUB STOP CALLER "
		},
		"gasEstimates": {
			"creation": {
				"codeDepositCost": "176600",
				"executionCost": "220",
				"totalCost": "176820"
			},
			"external": {
				"AddMemory()": "63842",
				"AddStorage()": "infinite",
				"checkValueInethe()": "infinite"
			}
		},
		"methodIdentifiers": {
			"AddMemory()": "fbc1c934",
			"AddStorage()": "94d26e4f",
			"checkValueInethe()": "5bfa9227"
		}
	},
	"abi": [
		{
			"inputs": [],
			"name": "AddMemory",
			"outputs": [],
			"stateMutability": "payable",
			"type": "function"
		},
		{
			"inputs": [],
			"name": "AddStorage",
			"outputs": [],
			"stateMutability": "payable",
			"type": "function"
		},
		{
			"inputs": [],
			"name": "checkValueInethe",
			"outputs": [
				{
					"internalType": "uint256",
					"name": "toPay",
					"type": "uint256"
				},
				{
					"internalType": "uint256",
					"name": "Paid",
					"type": "uint256"
				}
			],
			"stateMutability": "view",
			"type": "function"
		}
	]
}